{
  "_format": "hh-sol-artifact-1",
  "contractName": "CarRental",
  "sourceName": "contracts/CarRental.sol",
  "abi": [
    {
      "inputs": [],
      "stateMutability": "nonpayable",
      "type": "constructor"
    },
    {
      "anonymous": false,
      "inputs": [
        {
          "indexed": true,
          "internalType": "address",
          "name": "renter",
          "type": "address"
        },
        {
          "indexed": false,
          "internalType": "string",
          "name": "carType",
          "type": "string"
        },
        {
          "indexed": false,
          "internalType": "uint256",
          "name": "pickUpDate",
          "type": "uint256"
        },
        {
          "indexed": false,
          "internalType": "uint256",
          "name": "dropOffDate",
          "type": "uint256"
        }
      ],
      "name": "CarBooked",
      "type": "event"
    },
    {
      "anonymous": false,
      "inputs": [
        {
          "indexed": true,
          "internalType": "uint256",
          "name": "reservationId",
          "type": "uint256"
        }
      ],
      "name": "ReservationCanceled",
      "type": "event"
    },
    {
      "anonymous": false,
      "inputs": [
        {
          "indexed": true,
          "internalType": "uint256",
          "name": "reservationId",
          "type": "uint256"
        }
      ],
      "name": "ReservationConfirmed",
      "type": "event"
    },
    {
      "inputs": [
        {
          "internalType": "string",
          "name": "_carType",
          "type": "string"
        },
        {
          "internalType": "uint256",
          "name": "_pickUpDate",
          "type": "uint256"
        },
        {
          "internalType": "uint256",
          "name": "_dropOffDate",
          "type": "uint256"
        }
      ],
      "name": "bookCar",
      "outputs": [],
      "stateMutability": "nonpayable",
      "type": "function"
    },
    {
      "inputs": [
        {
          "internalType": "uint256",
          "name": "_reservationId",
          "type": "uint256"
        }
      ],
      "name": "cancelReservation",
      "outputs": [],
      "stateMutability": "nonpayable",
      "type": "function"
    },
    {
      "inputs": [
        {
          "internalType": "uint256",
          "name": "_reservationId",
          "type": "uint256"
        }
      ],
      "name": "confirmReservation",
      "outputs": [],
      "stateMutability": "nonpayable",
      "type": "function"
    },
    {
      "inputs": [
        {
          "internalType": "uint256",
          "name": "_reservationId",
          "type": "uint256"
        }
      ],
      "name": "getReservation",
      "outputs": [
        {
          "internalType": "address",
          "name": "renter",
          "type": "address"
        },
        {
          "internalType": "string",
          "name": "carType",
          "type": "string"
        },
        {
          "internalType": "uint256",
          "name": "pickUpDate",
          "type": "uint256"
        },
        {
          "internalType": "uint256",
          "name": "dropOffDate",
          "type": "uint256"
        },
        {
          "internalType": "bool",
          "name": "confirmed",
          "type": "bool"
        }
      ],
      "stateMutability": "view",
      "type": "function"
    },
    {
      "inputs": [],
      "name": "reservationCount",
      "outputs": [
        {
          "internalType": "uint256",
          "name": "",
          "type": "uint256"
        }
      ],
      "stateMutability": "view",
      "type": "function"
    },
    {
      "inputs": [
        {
          "internalType": "uint256",
          "name": "",
          "type": "uint256"
        }
      ],
      "name": "reservations",
      "outputs": [
        {
          "internalType": "address",
          "name": "renter",
          "type": "address"
        },
        {
          "internalType": "string",
          "name": "carType",
          "type": "string"
        },
        {
          "internalType": "uint256",
          "name": "pickUpDate",
          "type": "uint256"
        },
        {
          "internalType": "uint256",
          "name": "dropOffDate",
          "type": "uint256"
        },
        {
          "internalType": "bool",
          "name": "confirmed",
          "type": "bool"
        }
      ],
      "stateMutability": "view",
      "type": "function"
    }
  ],
  "bytecode": "0x608060405234801561001057600080fd5b506000600181905550610f39806100286000396000f3fe608060405234801561001057600080fd5b50600436106100625760003560e01c8063067cf83214610067578063ae5e6cf41461009b578063b94c3305146100b7578063d57763c3146100d3578063e84f756e14610107578063ecc2ecdd14610125575b600080fd5b610081600480360381019061007c919061092f565b610141565b604051610092959493929190610a60565b60405180910390f35b6100b560048036038101906100b0919061092f565b61023c565b005b6100d160048036038101906100cc9190610bef565b6103e8565b005b6100ed60048036038101906100e8919061092f565b61055c565b6040516100fe959493929190610a60565b60405180910390f35b61010f6106b3565b60405161011c9190610c5e565b60405180910390f35b61013f600480360381019061013a919061092f565b6106b9565b005b6000818154811061015157600080fd5b90600052602060002090600502016000915090508060000160009054906101000a900473ffffffffffffffffffffffffffffffffffffffff169080600101805461019a90610ca8565b80601f01602080910402602001604051908101604052809291908181526020018280546101c690610ca8565b80156102135780601f106101e857610100808354040283529160200191610213565b820191906000526020600020905b8154815290600101906020018083116101f657829003601f168201915b5050505050908060020154908060030154908060040160009054906101000a900460ff16905085565b6001548110610280576040517f08c379a000000000000000000000000000000000000000000000000000000000815260040161027790610d26565b60405180910390fd5b600080828154811061029557610294610d46565b5b906000526020600020906005020190508060000160009054906101000a900473ffffffffffffffffffffffffffffffffffffffff1673ffffffffffffffffffffffffffffffffffffffff163373ffffffffffffffffffffffffffffffffffffffff1614610337576040517f08c379a000000000000000000000000000000000000000000000000000000000815260040161032e90610dc1565b60405180910390fd5b6000828154811061034b5761034a610d46565b5b9060005260206000209060050201600080820160006101000a81549073ffffffffffffffffffffffffffffffffffffffff02191690556001820160006103919190610802565b600282016000905560038201600090556004820160006101000a81549060ff02191690555050817f81a9339e192f17a2544892f6f54b4b2c4d16184d3ac5cbcd45146fe360d753af60405160405180910390a25050565b60006040518060a001604052803373ffffffffffffffffffffffffffffffffffffffff16815260200185815260200184815260200183815260200160001515815250908060018154018082558091505060019003906000526020600020906005020160009091909190915060008201518160000160006101000a81548173ffffffffffffffffffffffffffffffffffffffff021916908373ffffffffffffffffffffffffffffffffffffffff16021790555060208201518160010190805190602001906104b6929190610842565b50604082015181600201556060820151816003015560808201518160040160006101000a81548160ff02191690831515021790555050506001600081548092919061050090610e10565b91905055503373ffffffffffffffffffffffffffffffffffffffff167ffdc73d0cb89f717ce84a38ef3d0396e5eb5a8c3af40f3d0fc648b8571601f7f384848460405161054f93929190610e59565b60405180910390a2505050565b60006060600080600060015486106105a9576040517f08c379a00000000000000000000000000000000000000000000000000000000081526004016105a090610d26565b60405180910390fd5b60008087815481106105be576105bd610d46565b5b906000526020600020906005020190508060000160009054906101000a900473ffffffffffffffffffffffffffffffffffffffff1681600101826002015483600301548460040160009054906101000a900460ff1683805461061f90610ca8565b80601f016020809104026020016040519081016040528092919081815260200182805461064b90610ca8565b80156106985780601f1061066d57610100808354040283529160200191610698565b820191906000526020600020905b81548152906001019060200180831161067b57829003601f168201915b50505050509350955095509550955095505091939590929450565b60015481565b60015481106106fd576040517f08c379a00000000000000000000000000000000000000000000000000000000081526004016106f490610d26565b60405180910390fd5b600080828154811061071257610711610d46565b5b906000526020600020906005020190508060000160009054906101000a900473ffffffffffffffffffffffffffffffffffffffff1673ffffffffffffffffffffffffffffffffffffffff163373ffffffffffffffffffffffffffffffffffffffff16146107b4576040517f08c379a00000000000000000000000000000000000000000000000000000000081526004016107ab90610ee3565b60405180910390fd5b60018160040160006101000a81548160ff021916908315150217905550817fec59d58c5415ce6be7c425872bec7e9c1482eaf1fb023220ed20b45b5d1c0de060405160405180910390a25050565b50805461080e90610ca8565b6000825580601f10610820575061083f565b601f01602090049060005260206000209081019061083e91906108c8565b5b50565b82805461084e90610ca8565b90600052602060002090601f01602090048101928261087057600085556108b7565b82601f1061088957805160ff19168380011785556108b7565b828001600101855582156108b7579182015b828111156108b657825182559160200191906001019061089b565b5b5090506108c491906108c8565b5090565b5b808211156108e15760008160009055506001016108c9565b5090565b6000604051905090565b600080fd5b600080fd5b6000819050919050565b61090c816108f9565b811461091757600080fd5b50565b60008135905061092981610903565b92915050565b600060208284031215610945576109446108ef565b5b60006109538482850161091a565b91505092915050565b600073ffffffffffffffffffffffffffffffffffffffff82169050919050565b60006109878261095c565b9050919050565b6109978161097c565b82525050565b600081519050919050565b600082825260208201905092915050565b60005b838110156109d75780820151818401526020810190506109bc565b838111156109e6576000848401525b50505050565b6000601f19601f8301169050919050565b6000610a088261099d565b610a1281856109a8565b9350610a228185602086016109b9565b610a2b816109ec565b840191505092915050565b610a3f816108f9565b82525050565b60008115159050919050565b610a5a81610a45565b82525050565b600060a082019050610a75600083018861098e565b8181036020830152610a8781876109fd565b9050610a966040830186610a36565b610aa36060830185610a36565b610ab06080830184610a51565b9695505050505050565b600080fd5b600080fd5b7f4e487b7100000000000000000000000000000000000000000000000000000000600052604160045260246000fd5b610afc826109ec565b810181811067ffffffffffffffff82111715610b1b57610b1a610ac4565b5b80604052505050565b6000610b2e6108e5565b9050610b3a8282610af3565b919050565b600067ffffffffffffffff821115610b5a57610b59610ac4565b5b610b63826109ec565b9050602081019050919050565b82818337600083830152505050565b6000610b92610b8d84610b3f565b610b24565b905082815260208101848484011115610bae57610bad610abf565b5b610bb9848285610b70565b509392505050565b600082601f830112610bd657610bd5610aba565b5b8135610be6848260208601610b7f565b91505092915050565b600080600060608486031215610c0857610c076108ef565b5b600084013567ffffffffffffffff811115610c2657610c256108f4565b5b610c3286828701610bc1565b9350506020610c438682870161091a565b9250506040610c548682870161091a565b9150509250925092565b6000602082019050610c736000830184610a36565b92915050565b7f4e487b7100000000000000000000000000000000000000000000000000000000600052602260045260246000fd5b60006002820490506001821680610cc057607f821691505b60208210811415610cd457610cd3610c79565b5b50919050565b7f496e76616c6964207265736572766174696f6e20494400000000000000000000600082015250565b6000610d106016836109a8565b9150610d1b82610cda565b602082019050919050565b60006020820190508181036000830152610d3f81610d03565b9050919050565b7f4e487b7100000000000000000000000000000000000000000000000000000000600052603260045260246000fd5b7f4f6e6c79207468652072656e7465722063616e2063616e63656c000000000000600082015250565b6000610dab601a836109a8565b9150610db682610d75565b602082019050919050565b60006020820190508181036000830152610dda81610d9e565b9050919050565b7f4e487b7100000000000000000000000000000000000000000000000000000000600052601160045260246000fd5b6000610e1b826108f9565b91507fffffffffffffffffffffffffffffffffffffffffffffffffffffffffffffffff821415610e4e57610e4d610de1565b5b600182019050919050565b60006060820190508181036000830152610e7381866109fd565b9050610e826020830185610a36565b610e8f6040830184610a36565b949350505050565b7f4f6e6c79207468652072656e7465722063616e20636f6e6669726d0000000000600082015250565b6000610ecd601b836109a8565b9150610ed882610e97565b602082019050919050565b60006020820190508181036000830152610efc81610ec0565b905091905056fea264697066735822122005b42b8488859660569aaefd6105da5882aff489f870803ecdaec2b070c2ef8664736f6c63430008090033",
  "linkReferences": {},
  "deployedLinkReferences": {}
}